:020000040000FA
:100000000080001051040000590400005B0400004F
:100010005D0400005F0400006104000000000000B7
:100020000000000000000000000000006304000069
:10003000650400000000000067040000690400007F
:100040006B0400006B0400006B0400006B040000F4
:100050006B0400006B0400006B0400006B040000E4
:100060006B0400006B0400006B0400006B040000D4
:100070006B0400006B0400006B0400006B040000C4
:100080006B0400006B0400006B0400006B040000B4
:100090006B0400006B0400006B0400006B040000A4
:1000A0006B0400006B0400006B0400006B04000094
:1000B0006B0400006B0400006B0400006B04000084
:1000C0006B040000000000000000000000000000C1
:1000D0000000000000000000000000000000000020
:1000E0000000000000000000000000000000000010
:1000F0000000000000000000000000000000000000
:1001000000000000000000000000000000000000EF
:1002F000000000000000000000000000FFFFFFFF02
:1003000000F002F800F096F80AA090E8000C824491
:100310008344AAF10107DA4501D100F08BF8AFF26E
:10032000090EBAE80F0013F0010F18BFFB1A43F0D3
:1003300001031847F463000014640000103A24BF5E
:1003400078C878C1FAD8520724BF30C830C144BF3A
:1003500004680C607047000000230024002500267C
:10036000103A28BF78C1FBD8520728BF30C148BF18
:100370000B6070476E2900F0DE84702900F03F8624
:10038000662905F0AE86652905F0AB86672905F07C
:10039000A886612905F0A78603681B0A28BF41F0DB
:1003A0008001692900F01A81642900F017817529FC
:1003B00000F014816F2900F0CC85782900F00B86BD
:1003C000E92900F06785E42900F06485F52900F04B
:1003D0006185EF2900F0C985F82900F00A860368D5
:1003E000DB0928BF41F08001632900F0E88473290C
:1003F00000F0ED84E32901F0DD83F32901F0E283CD
:10040000002070471FB59DE8030000F0C1FB01F01C
:100410005DFC04000020002104F06EFE401C6060C2
:100420000020002104F052FEE06000F00BFF00F01D
:1004300081FB1FBD02F00EFB114603B402F01EFB50
:1004400003BCFFF7DFFF02F02EF902F04DFE0000C3
:100450000648804706480047FEE7FEE7FEE7FEE75E
:10046000FEE7FEE7FEE7FEE7FEE7FEE7B526000053
:1004700001030000004870477003001070B5064685
:1004800000F06AFB056806F10B0020F00704B44297
:100490009CBF002070BD2B466A68BAB11068A042AC
:1004A00010D304F1080188423CBF5068586007D35C
:1004B0005168101941601168091B0160586014608F
:1004C000101D70BD13465268002AE7D12146284608
:1004D00000F04AFB0028DED170BD70B50446051F50
:1004E00000F03AFB0068002C14BF446870BD002C7B
:1004F00018BFAC423CBF20466468F8D301680A18B4
:10050000AA4218BF456003D12A680546114401601C
:1005100028684119A1421CBF6C6070BD61686960A8
:1005200021680844286070BD7CB51D4616460C0045
:10053000009001D02044401E074B7B442A46694668
:100540000190304600F011FC05461CB100206946C0
:1005500000F01EFC28467CBD5D0800000FB41CB5F1
:10056000084B06AA7B4469460090059800F0FDFB05
:1005700004460020694600F00BFC20461CBC5DF8D8
:1005800014FB00002908000070B50C460546012A3E
:1005900005D02878800600D5EA69002302E001230F
:1005A00005E05B1C934202D2E05C0028F9D1A86907
:1005B000E618C01AA861286A18442862284600F084
:1005C00028FB04E0D5E9012114F8010B9047B4425F
:1005D000F8D3284600F033FB70BD00002DE9F04150
:1005E0000646002410687529314616A510D000F083
:1005F00037FB002802DA404213A507E031688A077A
:1006000001D512A502E0490704D511A5012401E096
:1006100000F02FFB00210A2206F1240709E0B0FBBD
:10062000F2FCB0FBF2F302FB1C00303078541846A9
:10063000491C0028F3D123462A463046BDE8F04144
:1006400000F020BB000000002D0000002B00000087
:10065000200000002DE9F05F894604464FF0000AB3
:10066000DFF874B1FB44C0F820A02046E168884759
:10067000002874D0252806D0D4E901219047206AAB
:10068000401C2062F1E700265F462046E16888476B
:100690002028054607DB312D05D2781910F8200CEB
:1006A00008B10643F1E7B00701D526F00406C4F807
:1006B0001CA00027C4F818A02A2D09D0284602F053
:1006C000CDF938B304EB8708303DC8F8185019E06D
:1006D00059F8041B204604EB87029161E1688847C2
:1006E000012F054618D1E069002820DA26F02006FF
:1006F0001DE0D8F8180000EB800005EB4000303812
:10070000C8F818002046E1688847054602F0A6F9B7
:100710000028EED1012F0AD02E2D08D12046E16805
:1007200088477F1C0546022F46F02006C4DBA069DF
:10073000002803DA404246F00106A061F00701D02C
:1007400026F010066C2D0BD0682D09D04C2D39D019
:100750006A2D35D0742D35D07A2D33D016E038E09F
:10076000E1682F4620468847B842054609D16C2FDC
:1007700026D04FF48060E16806432046884705464E
:1007800004E06C2F1AD04FF4807006430DB3A5F12E
:100790004100192802D8203546F400664A46294609
:1007A000204626604E46FFF7E5FD80B101280BD0BC
:1007B000F61D26F0070000F1080956E74020E4E79F
:1007C0008020D8E70020D6E706F104094DE7284647
:1007D00052E7206ABDE8F09F545D000070B5044602
:1007E000C068810713D0800601D5A56A04E0A1691D
:1007F000606808442169451A204600F0DFFC0022A9
:1008000006462946204600F005FC304670BD002013
:1008100070BD70B510B1BDE87040DFE70025074C32
:100820006E1E07E02046FFF7D9FF00B13546206D68
:1008300020F00104002CF5D1284670BD740300108F
:100840002DE9F0410C4607461646104600F096FD8D
:100850002078611C61280AD0722802D077283CD108
:1008600002E00125002405E00225042402E008241A
:1008700048F2020511F8010B2B2806D0622809D096
:1008800011F8010C74280AD00BE045F0030544F080
:100890000204EFE745F0040544F00104EAE744F000
:1008A00010043846214602F063F9411C15D000219E
:1008B000316171604FF40071F560F1617061200782
:1008C00004D530460222002100F0A4FB306D40F038
:1008D000010030653046BDE8F0810020FBE72DE9DE
:1008E000F0410D460646104C206DC10704D041086A
:1008F00004D020F00104F7E722460EE05420FFF771
:10090000BDFD07000ED0206D47F0010108435421C2
:100910002065384600F0A6F83A4629463046BDE83C
:10092000F0418DE70020D6E77403001010B5431C9A
:1009300002E010F8011B71B18107FAD14FF00132CA
:1009400002C88C1A8C4314EAC211F9D0C01A0A06E4
:1009500003D0C01E10BDC01A10BD0A0401D0801EF5
:1009600010BD0902FCD0401E10BD40EA010370B565
:100970009B072ED14FF00136042A2AD308C810C98C
:100980009D1B9D43121F15EAC61517D0D8B2E1B2C0
:10099000401A50EA056110D198B2A1B2401A50EA4B
:1009A00005410AD123F07F4024F07F41401A50EAEC
:1009B000052102D1180EA0EB146070BDA342DBD05C
:1009C00018BA21BA884201D9012070BD4FF0FF301A
:1009D00070BD0AB9002070BD10F8013B11F8014B41
:1009E00063B1A3420AD1521E08D010F8013B11F89E
:1009F000014B1BB1A34201D1521EEDD1181B70BD9A
:100A000010B5203AC0F00B80B1E81850203AA0E8A9
:100A10001850B1E81850A0E81850BFF4F5AF5FEADD
:100A2000027C24BFB1E81850A0E8185044BF18C990
:100A300018C0BDE810405FEA827C24BF51F8043B37
:100A400040F8043B08BF7047D20728BF31F8023B8B
:100A500048BF11F8012B28BF20F8023B48BF00F81F
:100A6000012B70474FF0000200B51346944696469E
:100A7000203922BFA0E80C50A0E80C50B1F12001B1
:100A8000BFF4F7AF090728BFA0E80C5048BF0CC05F
:100A90005DF804EB890028BF40F8042B08BF7047BD
:100AA00048BF20F8022B11F0804F18BF00F8012B2F
:100AB000704700004FF0013C50F8042B51F8043B04
:100AC0009A4221D1A2EB0C03934313EACC1317D122
:100AD00050F8042B51F8043B9A4215D1A2EB0C03B9
:100AE000934313EACC130BD150F8042B51F8043B79
:100AF0009A4209D1A2EB0C03934313EACC13DBD047
:100B00004FF00000704700BFD01A01BAB1FA81F16E
:100B100001F0180122FA01F0CB40C1F12001DBB253
:100B2000C0B2C01A2CFA01F3D11A914311EAC311D1
:100B3000E6D1704770B5064C7C44064D7D4403E019
:100B4000206820448047241DAC42F9D170BD0000CC
:100B5000385D0000385D00000048704770040010E8
:100B6000704770477047704738B504460A46002002
:100B7000694601F086F8002808BF38BD0246009992
:100B8000204600F021FC012038BD012001F066B8AC
:100B9000F8B501F06BF8054600200C46102000BFA8
:100BA0000646A819A0420DD932466946002001F038
:100BB00068F8070008BF01F051F80098A04218BF7C
:100BC0000546C419FFF7C8FF05600746F01D20F071
:100BD00007004619284600F00AF8B44208BFF8BDDD
:100BE000A21B31463868BDE8F84000F0EDBB00219B
:100BF0000160C0E9011070471020704710B5FFF781
:100C000039FC006810BD10B50446FFF733FC0460E2
:100C100010BD70B5044685690068C10601D530264F
:100C200000E02026C00707D070BDD4E9012130467E
:100C30009047206A401C20626D1EF6D570BD70B5CD
:100C4000044685690078C00707D170BDD4E9012149
:100C500020209047206A401C20626D1EF6D570BD92
:100C600009684A0501D540B27047C905FCD500B2F4
:100C7000704709684A0501D5C0B27047C905FCD55F
:100C800080B270472DE9F0470D46994692460446DA
:100C900000F124080168880604D5E06921F01001FC
:100CA000216000E00120A84201DD471B00E0002791
:100CB000A1697A1902EB0900081AA0612078C00620
:100CC00002D42046FFF7A5FF002608E0D4E9012161
:100CD0001AF806009047206A401C761C20624E4598
:100CE000F4DB2078C0060AD52046FFF792FF06E025
:100CF000D4E9012130209047206A401C2062381E30
:100D0000A7F10107F4DC07E0D4E9012118F8050098
:100D10009047206A401C2062281EA5F10105F3DCE3
:100D20002046FFF78CFF2078000602D50220BDE8A0
:100D3000F0870120FBE711680268006A530501D5BE
:100D400008700AE0D30501D5088006E0130603D534
:100D5000C217C1E9000200E00860012070470000EE
:100D600001694A1C02610878704700B58FB0CDE96F
:100D700001310021059105497944CDE9031011465F
:100D80006846FFF767FC0FB000BD0000E5FFFFFFFE
:100D90000A6802F8010B0A607047D1E900239A4201
:100DA00002D2531C0B601070704710B5436913B129
:100DB000AFF3008001E0FFF7E7FB012010BD1278E0
:100DC00000F124010A7000224A700122EDE7116847
:100DD0004FF0FF32E9E700002DE9FF5F15468A4634
:100DE0000446DFF8AC80F8440027D8E900103E46FE
:100DF000CDE9001010E03AF816106A4602A800F09B
:100E000006FF411C07D02178890603D5E26939180D
:100E100091420DD80744761C2078800602D5E069FF
:100E2000B84205DDAE42E6DB3AF816000028E2D112
:100E3000A069C01BA0612046FFF7EBFED8E90010B7
:100E4000CDE90010002017E03AF818106A4602A811
:100E500000F0DDFEB0F1FF3F81460BD000250DF123
:100E6000080B05E0D4E901211BF8050090476D1C33
:100E70004D45F7D308F10100B0428046E4DB206A1B
:100E8000384420622046FFF7DAFEBDE8FF9F0000ED
:100E9000E65500002DE9F0418046D21D22F0070200
:100EA0000025D2E90002F52915A614D0011E72F121
:100EB000000106DA0023D0EB030063EB020211A667
:100EC00008E0D8F800108B0701D50FA602E049070B
:100ED00001D50EA601251146002408F1240704E0DF
:100EE00000F08CFA30323A55641C50EA0102F7D116
:100EF0002B46324621464046BDE8F041FFF7C2BED0
:100F0000000000002D0000002B0000002000000069
:100F100030B4002100F1240408E002F00705D208F3
:100F2000303542EA4372DB086554491C52EA030536
:100F3000F3D10468002310A2250707D5A40600D426
:100F400021B1C46901230DA2641EC46130BCFFF746
:100F500099BE10B5044621461068FFF78AFE024686
:100F60002046BDE810400023D2E7D21D22F0070141
:100F7000D1E90023CCE700000000000030000000B1
:100F8000F0B40D460188090502D5214C7C4402E0ED
:100F90001F4C7C440E34002100F1240608E002F0CE
:100FA0000F071209E75D42EA03721B097754491CD7
:100FB00052EA0307F3D102780023120704D5702DFB
:100FC00006D009B1022311342246F0BCFFF75ABE05
:100FD00001231034F8E770B504460D462146106829
:100FE000FFF747FE024629462046BDE87040002331
:100FF000C6E7D21D22F00703D3E90023C0E7036848
:10100000126843F0200303600823C3610023B7E79D
:10101000485400002DE9F041044616460D46476944
:10102000007B80072ED0384601F082FD50BB3EB3D6
:10103000012E02D0022E25D104E0204600F0C6FD8C
:1010400005441DE0384601F04DFDE168002841F0FF
:101050001001E16005DA204600F07CF80120BDE8CF
:10106000F081C9030BD56268E16A914200D811464C
:10107000A26911442269891A814200DD08460544AB
:10108000002D01DA0220EAE7E16A6068E268814245
:1010900006D29103E06203D522F4003141F0100240
:1010A000A6690027AE4213DCE16A814201D90B46F2
:1010B00000E0034603EB060C2369ACEB030CAC45E4
:1010C00006DD814201D98C4600E084469C4505D16D
:1010D000A760276042F02000A5620DE0AD1BE66925
:1010E000AE1B8142A66000D90846C01A281A2060AB
:1010F0005819606022F0200003490840E060002099
:1011000084F84870ABE70000BFCFD7FF70B5C46864
:10111000A50713D0650211D4B2F5807F09D0B2F5CE
:10112000007F06D0B2F5806F08D1012300F12401C1
:1011300006E05D1E6FF07F46B54201D3012070BD11
:101140000161C361416024F470611143C1600020FA
:1011500070BD0000C16821F4001141F08001C16040
:1011600000218160016070472DE9F04781461446F7
:101170000E464FF0FF383248D5685769054209D00E
:101180003846A16901F0F8FD002811DB2C48C04366
:101190000540E5602B4632464946384601F014FECC
:1011A000A16920F00042B21A11440028A16103D0C5
:1011B0002046FFF7CFFF4046BDE8F08770B50446F4
:1011C0000569C06A6168884200D80846E16821F470
:1011D0002011E160C90312D5A84208D02246411B64
:1011E0002846FFF7C1FF10B14FF0FF3070BD00205F
:1011F000E562C4E90150E06820F48030E06000203E
:1012000070BD10B50446C06820F02000E060A16AFF
:10121000A06988420DD02046FFF7D0FFE06820F497
:10122000405040F01000E060A06AA0612069E062D8
:10123000606044F24001E0688843E06010BD000057
:101240001000020010B542485421FFF70BFC414842
:101250005421FFF707FC40485421FFF703FC3F49A6
:101260003B483C4A3F4B08603D490A603A49196097
:10127000531C0365481C1065012008653B48344A2F
:1012800039A17844FFF7DCFA20B9384878440A38A5
:1012900000F0DDFC37482F4A35A17844FFF7D0FA3B
:1012A00020B9344878440A3800F0D1FC32482A4A40
:1012B0002FA17844FFF7C4FA20B92F4878440A38A0
:1012C00000F0C5FC40232248DC0000212246FFF745
:1012D0001DFF20B125487844543800F0B8FC1D4863
:1012E000224640230021FFF711FF20B12148784416
:1012F000543800F0ACFC1848224610230021FFF7B8
:1013000005FF002806D01C487844BDE81040563838
:1013100000F09DBC10BD104870B5006D20F00104B8
:101320000B4800F02BF80B4800F028F80A4800F0B2
:1013300025F809E0206D20F00105204600F01EF898
:101340002046FFF7CAF82C46002CF3D170BD0000F0
:1013500074030010C80300101C04001014010010D6
:10136000180100101C01001072000000DE4F000088
:1013700077000000CD4F0000BD4F00002DE9F04781
:1013800004464FF000094FF0FF37C568D4E90486E2
:10139000A80707D02046FFF711FF304601F07CFB7D
:1013A000002802DA3846BDE8F087280502D5404615
:1013B000FFF793F84C212046FFF754FB206D20F0F7
:1013C000010020654846EEE7034640688C46002849
:1013D00018BF88423CBF03464068F8D318681844D9
:1013E000884207D00CF1030020F00700001D411ACD
:1013F000521A0146081D0A60FFF76FB830B5B0F108
:101400000A024FEA900E71F100034EEA817EB0EBC2
:101410000E0061EB91014FEA101E4EEA017E10EBC7
:101420000E0041EB11114FEA102E4EEA016E10EB47
:101430000E0041EB11214FEA104E4EEA014E10EB27
:101440000E0041EB1141401841F100014FEAD0007C
:1014500040EA41704FEAD10110EB80054FEA810468
:1014600044EA907444EB01046D1944EB0404521BEC
:10147000A3414FF0000348BF0A3200D530BD401CE5
:1014800041F1000130BD70472DE9FF4F0C461E466B
:101490004FF0FF378BB0D2E90001DDF860800A9091
:1014A0008A46C1F30A5505B93D46002108464FF06A
:1014B0000000BAF1000F00F4400005DA00EB8000F4
:1014C0004FF4400101EA50004FEA9059B9F1010F81
:1014D00000DDB9460A9850EA4A000ED044F6105092
:1014E000A5F2FF3545432F14B8F1000F1ED0754209
:1014F000291E1EDDC9F100021CE0B8F1010F4FF0FA
:10150000000001D0302103E0F24305E02154401CEB
:10151000B042FBDB30460022002121540B99C1F878
:101520000880C1E900200FB0BDE8F08FBD1B6D1C25
:10153000DEE74A4600DA694206A800F00BFC06AB7B
:1015400093E8070003AB83E8070050460A9900F0D0
:10155000E2FC8DE80700A0F500501F3800900398CA
:10156000002D0ADD42F21F014A460844002303A968
:101570000390684600F04BFF09E0A0F500504A4692
:101580001F38002303A90390684600F055FF8DE83B
:1015900007000004000C03D04FF0FF30410800E0CA
:1015A0001046B8F1000F03D00022009215461EE04D
:1015B000751E05D4FFF722FF303262556D1EF9D536
:1015C000B3460122084302D000227F1C04E02078A9
:1015D000302801D100227F1E002A099784D01DE007
:1015E000112D07DAFFF70AFF303262556D1C50EA01
:1015F0000102F5D1084302D00098C8B10EE00021E5
:10160000681E05E0235C625C63542254401E491C42
:101610008142F7DBAB46A81B401E0990002004F86E
:101620000B000B98099AC0F80880C0E9002B7AE7F4
:1016300011264FF0000857E72DE9F04F8846044681
:10164000D21D22F0070191B0D1E90001CDE90A01D4
:1016500001F0CEF902460B98C00F01D02D2007E013
:101660002068810701D52B2002E0202101EAC0007B
:10167000032A099001D0072A05DB0346414620468C
:1016800000F028FB0BE12078800601D5E06900E03E
:101690000620B8F1650F814606D0B8F1660F18D064
:1016A000B8F1670F70D131E00020B9F1110F00904F
:1016B00001DB112301E009F101030AAA01A90CA829
:1016C000FFF7E2FEDDE90C70002609F10105834613
:1016D00047E001204B4600904FF000470AAA01A9BD
:1016E0000CA8FFF7D1FEDDE90DB00C995D46002690
:1016F00010B909F101000D18B9EB050003D4C0F1D0
:10170000FF3609F10105A5EB09002BE0B9F1010F46
:1017100001DA4FF001090020B9F1110F009048469D
:1017200001DD112300E003460AAA01A90CA8FFF776
:10173000ABFEDDE90C704D4600268346207800079D
:101740000AD4AB4500DA5D4601A8012D04DD41193C
:1017500011F8011C302907D04F4502DA17F1040FA8
:1017600004DA012082460FE06D1EEEE7002F02DC56
:10177000ED1B3E4403E0781CA84200DD7D1CB81B35
:1017800000F1010A4FF000472078000703D4AA4572
:1017900001DB4FF0FF3A0021B7F1004F0DF1430894
:1017A0008DF8431024D002202B23002F01DA7F4232
:1017B0002D230A21021EA0F1010000DC5FB197FB7E
:1017C000F1FC97FBF1F201FB1C7C17460CF1300C8D
:1017D00008F801CDEEE7A8F10100037021880905A2
:1017E00001D5452100E06521A0F1010800F8011CA8
:1017F00009980FA9A1EB0807FF1D00B101204119AD
:1018000001EBEA70A1693844081A401EA0612078F3
:10181000C00602D42046FFF7FCF9099828B1D4E9A4
:1018200001219047206A401C20622078C00622D502
:101830002046FFF7EEF91EE0002E04DBB34502DD83
:1018400001A8805D00E03020D4E901219047206AA2
:10185000401C2062761CAAF101005FEA000A0AD14E
:1018600000F034FAC0680168405CD4E90121904777
:10187000206A401C2062281EA5F10105DCDC07E07F
:10188000D4E9012118F8010B9047206A401C20621E
:10189000381EA7F10107F3DC2046FFF7D0F903203B
:1018A00011B041E62DE9F04F04460D46D21D22F05D
:1018B000070089B0D0E900974846394601F098F80A
:1018C0000246F80F01D02D2307E02068810701D5DB
:1018D0002B2302E0202101EAC0038DF820300BB158
:1018E000012000E00020032A824601D0072A04DB01
:1018F0002946204600F0EEF93FE12078800601D429
:101900000D2500E0E569C7F30A560D2D49DA0021DF
:101910004FEA175B08464FF00000002F00F440002C
:1019200007DA00EB80004FF4400100EBD07001EAD1
:1019300060008115012901DD4FF0FF3100224FEADF
:10194000850CBCF1180F06D31346ACF118004FF00C
:101950008052C24003E04FF4801323FA0CF30CF1E1
:101960000C0CBCF1200F04D3ACF1200C09FA0CF0E4
:1019700001E007FA0CF000294FF0004801DD18B92A
:101980000FE00ED140450CD319EB02095F4121B99C
:10199000404502D19F4329EA0209BBEB175F00D003
:1019A000761C2088000502D57B48784402E07A48FE
:1019B0007844193808AA302302F80A30037C0AF167
:1019C0000101002E0AF1020A53546A4602DC4FF06C
:1019D000300101E04FF031014FF001088DF80010A7
:1019E00002D0A6F2FF3603E059EA470100D06B4E61
:1019F000002D02DC2178090704D54FF002082E21C2
:101A00008DF80110C44600210BE0C7F303433F01EA
:101A1000C35C491C6D1E02F80830052908F1010855
:101A200001DA002DF1DC00210CE000EB1973491CF8
:101A30001B786D1E082902F808304FEA091908F1D1
:101A4000010801DA002DF0DC21688B0602D516E0D2
:101A5000A8F10108E04505DD02EB080313F8013C9D
:101A6000302BF5D0B8F1000F09DD02EB080313F8B5
:101A7000013C2E2B03D1090701D4A8F10108002D48
:101A800005DD3E2102F808106D1E08F10108407CBA
:101A9000002E02F8080008F1010804DA2D20764231
:101AA00002F8080002E02B2002F808000A214FF497
:101AB0007A70864208F101080BDB96FBF0F33033B5
:101AC00002F8083096FBF0F308F1010800FB1366FA
:101AD00001E0642E0CDB642096FBF0F3303302F857
:101AE000083096FBF0F308F1010800FB136601E0F3
:101AF0000A2E06DB96FBF1F0303002F8080008F100
:101B0000010896FBF1F001FB1060303002F808008C
:101B1000A16908F1010808EB050202EB0A00081AA6
:101B2000A0612078C00602D42046FFF772F8216A2F
:101B300008AE01EB0A00206204E0D4E9012116F8A6
:101B4000010B9047BAF1010AF7D22078C00602D5FE
:101B50002046FFF75EF86E4609E016F8010B3E28B6
:101B60000FD0D4E901219047206A401C2062B8F1CF
:101B70000108F2D22046FFF762F809B00320BDE861
:101B8000F08F206A2844206203E0D4E9012130204C
:101B900090476D1EEBD3F8E7654A000002FCFFFF9B
:101BA00010B5436913B1AFF3008001E0FFF714F9FA
:101BB000012010BD128800F1240182840022C28419
:101BC0000122EDE711684FF0FF32E9E710B5014659
:101BD000C268900703D0900607D5886A0AE0FEF72E
:101BE00049FC01210160881E10BD8B6948681844BA
:101BF0000B69C01A91F848301BB191F84910401A8E
:101C000010BD1103FCD50028FADD401E10BD70B5D3
:101C100016460C46054600F051F8036893F801019A
:101C2000012806D0FF2C0FD8185D68B101202C7058
:101C300070BDD3F807013246214603F2071303446F
:101C40002846BDE8704018474FF0FF3070BD10B512
:101C500000F0F8F8BDE8104000F0EEB810B500F064
:101C60000BF9BDE8104000F0E7B80000124B6946E0
:101C700000F580528A421A6001D8114670471960F7
:101C8000704730B50C4D6B46A3F580532C68224449
:101C90009A420FD89B1A02F5805003EBD37302EBE4
:101CA0006303984200D91846C01D20F007020C605B
:101CB000101B2A6030BD00002001001010B500F09C
:101CC00005F8001D10BD00BF31340000004870470A
:101CD000740400102DE9F0411F46044603260168F4
:101CE000072A01F4006004DB08B116A505E016A57B
:101CF00003E008B115A500E015A521F01000206053
:101D0000A069C01EA0610FB1401EA0612046FEF771
:101D100080FF4FB1D4E9012138469047206A401C2A
:101D20002062C01C206206E0206AFAE7D4E90121A3
:101D300015F8010B9047761EF8D22046FEF77FFF7C
:101D4000BDE8F0814E414E006E616E00494E460086
:101D5000696E66002DE9F047814616468AB035481F
:101D600078440DC88DE80D0032487844801C03ACDF
:101D70000DC884E80D0041F69B300844372190FBE4
:101D8000F1F290FBF1F5A5F1800501FB12041B3C7B
:101D900002D56442012000E00020DFF898A08046D0
:101DA0000027FA44AAF1BE0A0EE0E0070AD0324644
:101DB000684607EB470101230AEB810100F03CFB79
:101DC0008DE8070064107F1C002CEED1194F7F4472
:101DD000AE3F19E0E80715D007EB04100DF1180A23
:101DE00090E80E008AE80E00C068F04201D1981910
:101DF00008903246012306A903A800F01DFB03AB9F
:101E000083E807006D10641C002DE3D14FF001033F
:101E100032466946B8F1000F03A802D000F0F7FA85
:101E200001E000F009FBC9E90001C9F808200AB087
:101E3000BDE8F08740470000002801D000F044B81A
:101E40007047000010B5014602A000F043F80120E1
:101E500010BD000053494752545245443A20526540
:101E60006469726563743A2063616E2774206F70D1
:101E7000656E3A200000000010B5012805D0002151
:101E800003A000F027F8012010BD09A1F8E7000029
:101E900053494752544D454D3A204F7574206F6653
:101EA0002068656170206D656D6F727900000000BB
:101EB0003A2048656170206D656D6F727920636F9F
:101EC000727275707465640001491820ABBEFEE73C
:101ED0002600020070B505460C460A2000E06D1C85
:101EE00000F011F835B128780028F8D102E0641C20
:101EF00000F009F814B120780028F8D1BDE870404E
:101F00000A20AFF3008008B569468DF80000032071
:101F1000ABBE08BD70475FEA400C08BF91F0000FF0
:101F20004FEA8C234FEAC12243EA51514FEA1C5039
:101F300018BF00F5F0404FEA300018BF41F00041F3
:101F40005FEA6C5C00F02980BCF1FF3F08BF40F005
:101F500080407047130C06BF12044FF0100C4FF076
:101F6000000C130E04BF12020CF1080C130F04BF77
:101F700012010CF1040C930F04BF92000CF1020C3F
:101F8000D30F04BF52000CF1010C11464FF00002B8
:101F9000A0F11F00A0EB0C00704711F0004F08BF2C
:101FA000704731F000413FF4D5AF0B0C06BF090478
:101FB0004FF0100C4FF0000C0B0E04BF09020CF197
:101FC000080C0B0F04BF09010CF1040C8B0F04BFAC
:101FD00089000CF1020CCB0F04BF49000CF1010C7D
:101FE000CCF12003A0EB0C0022FA03F302FA0CF26E
:101FF00041EA030100F10100704720F07F4C80EAC4
:10200000030023F07F47ACEB070303F57C5300F09C
:10201000004003F1FF032DE980494FEA154B09B455
:102020004FEA144325EA0B4E24EA03480FF2042634
:1020300006EB132749083E785FEA320203FB066786
:10204000C7F5000707FB06F64FEA54374FEAD646B6
:1020500006F1020607FB066CCCF1005C4FEA1C4758
:102060002CEA074C07FB06F40CFB06F504EB1546BF
:102070004FEA961634BF00204FF000404FEAD137A8
:1020800006FB07FC4FEA1C4C0CFB0BF7D21B03FBB7
:102090000CF761EB07010CFB0EF7B0EB074072EB9E
:1020A00017420CFB08F734BFA2EB0742B2EB074222
:1020B00061EB17414FEA0C444FEA910706FB07FC1E
:1020C0004FEA1C4C0CFB0BF7B0EBC74072EB5732DE
:1020D00003FB0CF734BFA2EBC742B2EBC74261EB84
:1020E00057310CFB0EF7B0EBC70072EB57720CFBCD
:1020F00008F734BFA2EBC702B2EBC70261EB57711E
:10210000039F4FEA816141EA921104EBCC044FEA4C
:10211000D1374FEA826206FB07FC42EA90124FEA8F
:1021200080604FEA1C4C0CFB0BF7D21B03FB0CF737
:1021300061EB07010CFB0EF7B0EB074072EB1742A7
:102140000CFB08F734BFA2EB0742B2EB074261EB8E
:1021500017414FEA8C554FEA910704EB9C2406FB8C
:1021600007FC4FEA1C4C0CFB0BF7B0EBC74072EBC3
:10217000573203FB0CF734BFA2EBC742B2EBC742A6
:1021800061EB57310CFB0EF7B0EBC70072EB5772E7
:102190000CFB08F734BFA2EBC702B2EBC70261EB3E
:1021A000577115EB4C254FEA816141EA92114FEAD4
:1021B00082624FEAD13742EA901206FB07FC44F1F3
:1021C00000044FEA80604FEA1C4C0CFB0BF7D21B5B
:1021D00003FB0CF761EB07010CFB0EF7B0EB0740BC
:1021E00072EB17420CFB08F734BFA2EB0742B2EBCD
:1021F000074261EB174115EB1C154FEA813141EAAB
:1022000092414FEA823242EA90424FEA80304FEAEE
:102210000C7644F1000448EA03434EEA0B484FF0C1
:10222000000EB2EB080C71EB030724BF624639467F
:102230004EEB0E0E4FF0000B0018524149414BEB94
:102240000B0BB2EB080C71EB03077BF1000B24BF07
:10225000624639464EEB0E0E4FF0000B001852410D
:1022600049414BEB0B0BB2EB080C71EB03077BF115
:10227000000B24BF624639464EEB0E0E51EA0207B0
:1022800018BF46F0010616EB0E7655F1000254F128
:10229000000103D5BDE88901BDE80088BDE88901DA
:1022A000BDE80048B619524141EB0101A3F1010319
:1022B000704780807F7E7D7C7B7A797877767675B3
:1022C0007473727171706F6E6E6D6C6C6B6A6A692B
:1022D0006868676666656464636362616160605FC5
:1022E0005F5E5E5D5D5C5C5B5B5A5A59595858573E
:1022F00057565655555554545353525252515150A6
:1023000050504F4F4F4E4E4D4D4D4C4C4C4B4B4BF8
:102310004A4A4A494949484848474747474646463E
:102320004545454444444443434343424242424179
:102330004141002B9C4630D477002BD01CB54FEA8E
:10234000370703B44FF010004FF01001BAF1000F3F
:1023500006D0BCF1000FDCBF40F0080040F00801DF
:102360004FF000000FBCBDE810400BF1010BBBF1BA
:10237000010F08BF5FEA170722BF12F1010211F136
:1023800001014FF0004143F1000300F0004043EA37
:1023900000007047F9D35708D0E746EA064613F124
:1023A000400F4FEA16461FDD13F1200FDFBF164323
:1023B0000A46002120335B42BED0C3F1200746EA23
:1023C000064602FA07F74FEA164646EA0706C3F141
:1023D000200722FA03F201FA07F721FA03F14FF07E
:1023E000000342EA0702A7E746EA020646EA064673
:1023F0004FEA164646EA0106BCBF46EA0646360CD8
:102400004FF000034FF000024FF0000194E72DE978
:10241000804C9A46934670B491E8380007C831EA78
:10242000400C48BF34EA430C03D5FFF7E6FDFFF745
:1024300080FFF0BCBDE8008C2DE9804C9A469346A5
:1024400070B491E8380007C810F0804F08BF13F04F
:10245000804F03D100F005F8FFF76BFFF0BCBDE83B
:10246000008C20F07F4780EA030023F07F4C07EBCD
:102470000C03A3F57C5300F00040A3F1FE0392F09F
:10248000000F00F0B38095F0000F00F077802DE989
:1024900001494FEA11404FEA144621EA004800FB87
:1024A00006FC24EA064708FB06F607FB08F800FBD3
:1024B00007F718EB06484CEB164C4FEA124B18EB9B
:1024C00007484FEA15464CEB174022EA0B4E0BFB30
:1024D00006FC25EA06470EFB06F607FB0EFE0BFB85
:1024E00007F71EEB064E4CEB164C4FF000061EEBAA
:1024F000074E4CEB174B18EB0B0840F1000018EBA4
:102500000E0B58EB000840F100008F1A4FF000014D
:102510003CBFC943661B14BFB5EB040C00213CBF94
:10252000C943F61B4FEA17444EEA8E0E27EA0445CC
:102530004FEA1C4704FB07622CEA074C05FB07F730
:102540000CFB05F604FB0CFC16EB074642EB1742AE
:1025500016EB0C4642EB1C421BEB060658EB020244
:10256000414146EA9E0601D5BDE80189B6195241AE
:1025700041EB0101A3F10103BDE801894FEA1445D4
:102580004FEA114724EA054621EA074C05FB07F408
:1025900006FB07F70CFB06F105FB0CFC11EB0741F2
:1025A00044EB17444FEA124711EB0C4144EB1C4437
:1025B00022EA074C05FB07F206FB07F70CFB06F6C1
:1025C00005FB0CFC16EB074642EB174216EB0C46DC
:1025D00042EB1C456A1854F1000148BF7047B61918
:1025E000524141EB0101A3F10103704795F0000F47
:1025F00037D04FEA11424FEA144721EA024624EA53
:10260000074C02FB07F106FB07F70CFB06F402FB85
:102610000CFC14EB074441EB17414FEA154714EB50
:102620000C4441EB1C4125EA074C02FB07F506FB75
:1026300007F70CFB06F602FB0CFC16EB074645EB16
:10264000174516EB0C4645EB1C42121951F10001DF
:1026500048BF7047B619524141EB0101A3F1010394
:1026600070474FEA14454FEA114724EA054621EA2C
:10267000074C05FB07F106FB07F70CFB06F24FF0D2
:10268000000605FB0CFC12EB074241EB174112EB75
:102690000C4251EB1C4148BF7047921841EB0101BD
:1026A000A3F10103704710B501F06EFFBDE81040C3
:1026B00000F0D2BF25482021C0F8A011D0F8A01109
:1026C00011F0200F05D000BFD0F8A01111F0400F7D
:1026D000FAD00221C0F804110022C0F8A821C0F8E5
:1026E000AC210121C0F80C110B23C0F88430AA23BF
:1026F000C0F88C304FF0550CC0F88CC0C0F880107A
:10270000C0F88C30C0F88CC0D0F8881011F0806F01
:10271000FAD00321C0F88010C0F88C30C0F88CC00B
:10272000D0F8881011F0407FFAD00521C0F80811C8
:102730000749C0F8C410C0F8C821016843F23A0242
:1027400021F47041114301607047000000C00F4048
:10275000DE87280407480168002904BF011D0160C5
:10276000001D814208BF70475D220349034801F004
:102770002BBE0000F4000010E8640000D4640000E8
:102780002DE9F8430446006888461D46016817464F
:10279000089E204688472068016820468847DFF861
:1027A0004890D9F80000A04205D0201DA16800F093
:1027B0006DFDC9F80040206841682046884786F0D2
:1027C000010000902B463A464146201D00F0D8FDFE
:1027D00006462068416820468847B54214BF01205C
:1027E0000020BDE8F8830000F00000102DE9F84358
:1027F0000446006888461D4601681746089E204624
:1028000088472068016820468847DFF84890D9F853
:102810000000A04205D0201DA16800F037FDC9F8D6
:102820000040206841682046884786F001000090FB
:102830002B463A464146201D00F07AFE06462068A7
:10284000416820468847B54214BF01200020BDE8FA
:10285000F8830000F000001007480168002904BF59
:10286000011D0160001D814208BF70475D220349C0
:10287000034801F0A9BD0000F4000010E864000066
:10288000D464000070B5044600680D460168204617
:1028900088472946201DA56000F0F8FC0348046025
:1028A000206841682046BDE870400847F0000010ED
:1028B00010B5044606482060002060600548A0600E
:1028C000201D00F0F1FC04480460204610BD00000B
:1028D000C4640000A0860100F00000107047007B77
:1028E0007047000070B506460D46154802F01AFC08
:1028F00014480468F4B1A068C8B12A463146FEF70E
:1029000034F8A0B9A068FEF711F8A8420FD10C481E
:102910000168002904BF011D0160001D814204D02F
:102920005D220949094801F04FFD204670BD6468E9
:10293000002CE0D1024802F0F5FB002070BD000041
:102940000C01001008010010E8640000D4640000CD
:1029500010B50446406818B1FFF7C1FF012801D047
:10296000002010BD6068002818BF001F10BD10B502
:102970000446406810B1FFF7B2FF08B1002010BD57
:102980006068002818BF001F10BD4068002818BFED
:102990000120704710B54068002808BF10BDFFF740
:1029A0009EFF00280CBF0120002010BD006870476A
:1029B00010B5044600202060606008782F280DD1F3
:1029C000487858B14B1C00212360226810782F28CA
:1029D00006D038B1501C491C2060F6E7204610BDD7
:1029E000501C20601846FFF77DFF6060204610BD38
:1029F000490050EAC12018BF04204A0D18BF40F01A
:102A0000010040F2FF72B2EB515F08BF40F00200DC
:102A1000012808BF0520704701207047012103F0FD
:102A200096BB0021084603F045B8000010B5054AE2
:102A3000511E0548FFF73CFF0446044A0449FFF7CE
:102A4000EBFF10BD0BC00920480300100000000080
:102A5000DD28000010B500F009F810BD30380A2854
:102A600001D20120704700207047000002486A46EA
:102A700020F00700704700008F04001010B5054CCF
:102A800021686006C422FDF7BBFF6006206001F0EC
:102A90007CFD10BD08ED00E00328BCBF002070479E
:102AA00010B500220E4901EB800151F80C0C41F8E1
:102AB0000C2C68B101684969884704005CBF00209C
:102AC00010BDFDF7D7FC614201604FF0FF3010BD33
:102AD000FDF7D0FC092101604FF0FF3010BD000070
:102AE0002802001010B5032805DAFDF7C3FC052104
:102AF0000160881F10BD0D4901EB800050F80C0CDF
:102B000060B10168896A8847040058BF10BDFDF7AD
:102B1000B1FC614201604FF0FF3010BDFDF7AAFC2F
:102B2000092101604FF0FF3010BD000028020010A5
:102B30000328BCBF0120704710B50C4901EB800091
:102B400050F80C0C58B10168C9698847040058BF97
:102B500010BDFDF78FFC61420160002010BDFDF744
:102B600089FC09210160002010BD0000280200102E
:102B70002DE9F0470E4684B081467549FDF79AFF6E
:102B8000754D744C6F1E20B374494846FDF792FF93
:102B900000282ED072494846FDF78CFF002838D017
:102BA000704C2068002804BF201D2060251DA8420D
:102BB00004D05D226C496D4801F006FC21686C4F21
:102BC000002400BF57F8240098B3641C102CF9D3DC
:102BD00032E0206848B92A463946664801F0FAFED4
:102BE0004FF41651634801F013FE04B00020BDE815
:102BF000F087206848B92A4639465E4801F0EAFE67
:102C00004FF416515B4801F003FE04B00120BDE80B
:102C1000F087206848B92A463946564801F0DAFE5E
:102C20004FF41651534801F0F3FD04B00220BDE803
:102C3000F087FFE7102C15D3FDF71CFC182101606D
:102C400048480168002904BF011D0160A94204D061
:102C50005D224549454801F0B7FB04B04FF0FF3015
:102C6000BDE8F0874FF0FF383E4847F82480002940
:102C700004BF011D01600068A84204D05D223A49EA
:102C80003A4801F0A1FB4FF0000ACDF808A099F8EE
:102C900000003A2808BFD9F8010010D0494668461C
:102CA000FFF786FE6846FFF770FE1325D8B3684627
:102CB000FFF770FE0028684608D0FFF758FE029024
:102CC00047F8240004B0E01CBDE8F087FFF740FEA1
:102CD00048B316F0020F18BF02252ED016F00C0FC5
:102CE00018BF45F4007516F0040F18BF45F4806551
:102CF00006466846FFF75AFE024630682B4602A990
:102D0000D0F808C03046E047002808BF0298D7D066
:102D10000546FDF7AFFB6942016047F824A004B007
:102D20004046BDE8F087FFE7FDF7A4FB056047F8E4
:102D300024A004B04046BDE8F08716F0040F18BF89
:102D40000125CBD116F0080F14BF09250025C5E7D2
:102D500064620000D800001003C009206B6200000C
:102D600073620000D0000010E8640000D46400002A
:102D700028020010E000001010B50022032806DA37
:102D8000FDF778FB1D2101604FF0FF3010BD0D4BAA
:102D900003EB800050F80C0C60B103681B69984786
:102DA000040058BF10BDFDF765FB614201604FF0A4
:102DB000FF3010BDFDF75EFB092101604FF0FF30D1
:102DC00010BD00002802001070B515460E460328FD
:102DD00018DA1948006848B9184A1948511E01F014
:102DE000F9FD4FF41651164801F012FD0024002D94
:102DF00006D9315D124801F029FF641CA542F8D8BC
:102E00002C460FE00F4901EB800050F80C0C58B134
:102E10000168CB6831469847040003D5FDF72AFBCB
:102E200061420160281B70BDFDF724FB0921016090
:102E30004FF0FF3070BD0000D800001003C0092023
:102E4000E0000010280200102DE9F04104464FF088
:102E50001A4000EB4400B0F1C85F204655D84FF04F
:102E6000FC41B1EB440F1CD224F000404FF07E51E6
:102E700003F02FF84FF0FF3103F069F9054601F038
:102E80009FFF14F0004F1DBF2C4F2D4E80F00040CF
:102E9000002708BF3E464FF0404102F01DFF0446A8
:102EA00005E0284F284E014602F016FF0546274947
:102EB000284602F011FF264902F088FD294602F05B
:102EC0000BFF244902F082FD294602F005FF22494A
:102ED00002F07CFD294602F0FFFE204902F076FD5B
:102EE00080462946204602F0F7FE414602F0F4FEF5
:102EF00005463146204602F0ECFF294603F07CF8F7
:102F00003946BDE8F04102F061BD4FF0CC41B1EB74
:102F1000440F84BF1248BDE8F0814FF07F41B1EB10
:102F2000440F03D2BDE8F041FFF778BD0120FDF763
:102F30006AFEBDE8F041FFF774BD000000004940A3
:102F400022AA7D3A0000C93F22AAFD3924FE1C3D79
:102F5000C78AD83C1E67383D1B93993DAFAA2A3ECD
:102F6000DB0FC93F70B5EFF31080012121EA0000AB
:102F700080F0010572B60D4C6068002808BF25700E
:102F80006068B0F1FF3F04D1432209A118A001F00D
:102F90001BFA606828B125B9472205A11EA001F0DF
:102FA00013FA6068401C606070BD000000010010F2
:102FB000433A5C6D6A5C776F726B73706163655CDA
:102FC000626D5F777261705C313636355C6D62655B
:102FD000642D6F735C706C6174666F726D5C6D6292
:102FE00065645F637269746963616C2E63000000DD
:102FF000696E746572727570745F656E61626C651E
:103000005F636F756E746572203C2055494E543372
:10301000325F4D4158000000696E746572727570C0
:1030200074735F64697361626C65640010B50E4C03
:103030006068002808BF10BDEFF31080012121EA6D
:10304000000090F0010F04D1582208A117A001F050
:10305000BBF96068401E60606068002806BF207889
:10306000002810BD62B610BD00010010433A5C6D2F
:103070006A5C776F726B73706163655C626D5F77BA
:103080007261705C313636355C6D6265642D6F73CC
:103090005C706C6174666F726D5C6D6265645F63B9
:1030A0007269746963616C2E63000000696E7465F7
:1030B0007272757074735F64697361626C656400C9
:1030C0000FB4084810B5017800291CBF10BC5DF88A
:1030D00014FB0121017003A9029801F029FA0120D3
:1030E00000F002F8FC00001004460848FDF791FBD0
:1030F0000748FDF78EFB01F045FA002818BF01F0E4
:1031000081FB002C18BF01F089F9FEE7C80300100D
:103110001C04001000487047B463000070B50446FA
:1031200000680D46B0F1FF3F04D12C2209490AA0E6
:1031300001F04AF945B1012D18BF70BDA0680168C2
:1031400062681143016070BDA068016862689143C4
:10315000F8E70000306500006F626A2D3E70696E0E
:1031600020213D202850696E4E616D65294E430037
:1031700070B50C4605460160B1F1FF3F08BF70BD58
:103180000021204601F002FA04F01F00012101FA9B
:1031900000F0686024F01F0000F11801E960091DCB
:1031A000296108396961A86070BD70B503260546BC
:1031B0000C46FFF7DDFFB4F1FF3F08BF70BD0021F3
:1031C0002846FFF7ABFF31462846BDE8704000F0C7
:1031D00059B8000070B50D4604460226FFF7C8FF37
:1031E000B5F1FF3F08BF70BD2068B0F1FF3F04D1CB
:1031F00024220849084801F0E7F82169606808605E
:1032000001212046FFF78AFF31462046BDE8704085
:1032100000F038B8D86500006C3200002DE9F041AC
:1032200004460E4602271546FFF7A2FFB6F1FF3F00
:1032300008BFBDE8F0812068B0F1FF3F04D124222F
:1032400009490AA001F0C0F86068002D14BFE168C8
:103250002169086001212046FFF760FF39462046BA
:10326000BDE8F04100F00EB8D86500006F626A2D2D
:103270003E70696E20213D202850696E4E616D655B
:10328000294E4300006801F0AFB90000054A1268FA
:1032900092084900B2FBF1F10268516100680161D6
:1032A00070470000E80000102DE9F0410E4604468A
:1032B00015462849304601F00FFA074626492846A8
:1032C00001F00AFA0146384601F0E8F92060B0F151
:1032D000FF3F04D16322214921A001F075F8206845
:1032E000A0F180412348B1F5E03110D0B1F5802F35
:1032F00004BFD0F8C41041F400210FD0B1F5042F61
:1033000004BFD0F8C41041F0806107D008E0D0F8C5
:10331000C41041F08001C0F8C41001E0C0F8C4102E
:103320001548164900688008B0FBF1F02168486133
:103330002168086121683C2088612168402008607C
:103340000449304601F0F6F92846BDE8F04102494B
:1033500001F0F0B9CC610000086200008465000053
:1033600028696E74296F626A2D3E69326320213D9F
:10337000204E430000C00F40E8000010400D030045
:103380002DE9F05F1F460368DDF828B0D3F800C0D0
:103390004FF034041CF0080F4FF020069C610468C5
:1033A0004FF0240323604FF008031CBFD0F800C087
:1033B000CCF81830D0F800C0DCF80040DFF83481D9
:1033C00014F0080F04BF0124454608D102E0641C34
:1033D000AC4204DCDCF8009019F0080FF7D0DCF800
:1033E0000440CCF81860102C18BF082C05D000F051
:1033F00083F86FF00100BDE8F09FD0F800C041F005
:103400000101CCF8081001688B61D0F800C0DCF82D
:10341000001011F0080F08BF01210AD104E000BF1D
:1034200001F10101414504DCDCF8004014F0080F13
:10343000F6D0DCF80410402905D000F05DF84FF01C
:10344000FF30BDE8F09F0025A7F1010A4FF0040905
:10345000BAF1000F26DD0168C1F8009001688B61A8
:103460000168D1F800C01CF0080F04BF0124C44655
:1034700007D102E0641C644503DC0E6816F0080FF7
:10348000F8D0D1F808C049680CF0FF0C502904D0DE
:1034900000F032F82846BDE8F09F02F805C06D1C28
:1034A0005545D8DB0168C1F8189001688B61016847
:1034B0000B6813F0080F08BF012308D102E05B1C62
:1034C000434504DCD1F800C01CF0080FF7D08B682E
:1034D0004968DBB2582904D000F00EF8781EBDE828
:1034E000F09F5355BBF1000F18BF00F005F83846A8
:1034F000BDE8F09FA08601000268102111600268FB
:10350000082191610268106810F0100F1CBF0120A3
:10351000064909D004E0401C884201DD01207047C3
:10352000136813F0100FF6D100207047A086010039
:103530002DE9F047D0F800C01E46DDF82080DCF809
:1035400000304FF0340413F0080F4FF02005CCF892
:10355000184004684FF0240CC4F800C04FF008076E
:103560001CBF03689F61D0F800C0DCF8003013F086
:10357000080F384B04BF0124994608D102E0641CAF
:103580004C4504DCDCF800A01AF0080FF7D0DCF89A
:103590000440CCF81850102C18BF082C05D0FFF7A9
:1035A000ABFF6FF00100BDE8F087D0F800C001F07C
:1035B000FE01CCF8081001688F61D0F800C0DCF87B
:1035C000001011F0080F08BF01210AD104E000BF6C
:1035D00001F10101994204DCDCF8004014F0080F0D
:1035E000F6D0DCF80410182905D0FFF785FF4FF05E
:1035F000FF30BDE8F0870024002E22DDD0F800C0A7
:10360000115DCCF8081001688F610568296811F018
:10361000080F04BF01219C4608D102E0491C614506
:1036200004DCD5F8009019F0080FF7D06968282954
:1036300004D0FFF761FF2046BDE8F087641CB44268
:10364000DCDBB8F1000F18BFFFF756FF3046BDE8CE
:10365000F0870000A0860100BAB0FBA00168399194
:10366000FAA001683891FAA001683791F949FA483F
:10367000FFF708F90020022339AA3A210090F64802
:10368000FFF7B4F89C2136910720F4498860832025
:10369000C86036980860002048600846C06820F07E
:1036A000F000C860EE48006820F07040EC49086007
:1036B0000846006840F0804008600846006C20F032
:1036C000704008640846006C40F0404008640846BA
:1036D000406C20F47F0048640846406C40F47C1045
:1036E0004864E0480068DF49C91EC1F803000021B2
:1036F0003591349133913291309131912F912E91B6
:103700002D9100202C90FAE300218DF8D410012097
:10371000034637AA3A210090CF48FFF767F8002008
:10372000022335AA3B210090CB48FFF729F89DF8EA
:10373000D40081019DF8D50041EAA001339133986E
:10374000B0F5005F05DB3398A0F57C50FF3801B27F
:103750003391339801F03AFF0022C34BCDE91C01AD
:1037600001F0DCFDCDE91E0101F0F2FC2B904FF0E1
:103770007E512B9802F07CFB02D24FF07E512B91B0
:10378000BA492B9802F074FA01D2B8492B912B98C0
:103790001F901F98FFF758FB2A902A9802F0EAF82A
:1037A000B34AB44BCDE91E0101F0B8FF0DD22A98FF
:1037B00002F0E0F8AE4AB04BCDE91C0101F0E4FFA5
:1037C000CDE91E0101F0C4FC2A90AC492A9802F010
:1037D00083FA1B9002F0CEF8A54AA74BCDE91C0155
:1037E00001F09CFDCDE91E0101F0B2FC2A902021E0
:1037F00022A8FDF737F99B48143000680021012307
:1038000018400940002358405940084301D0312353
:1038100000E0302393481430006800210224204047
:103820000940002460406140084301D0312400E099
:1038300030248C48143000680021042528400940B9
:10384000002568406940084301D0312500E030255B
:1038500084481430006800220821014002EA020076
:1038600051405040014301D0312000E03020CDE9EB
:103870001B541D931A907B481430006800211023BC
:1038800018400940002358405940084301D03122D4
:1038900000E03022734814300068002120242040CA
:1038A0000940002460406140084301D0312300E01A
:1038B00030236C481430006800214025284009401E
:1038C000002568406940084301D0312600E03026D9
:1038D00064481430006800218024204009400025FD
:1038E00068406940084301D0312000E03020CDE934
:1038F0001763199216905B48143000680021012369
:1039000003EA10200940002358405940084301D0E1
:10391000312300E030235348143000680021022492
:1039200004EA10200940002460406140084301D0AF
:10393000312400E030244B48143000680021042575
:1039400005EA102201EA010000267240704002439D
:1039500001D0312500E030254248143000680022B3
:10396000082101EA102102EA0200514050400143BF
:1039700001D0312000E03020CDE91354159312908E
:103980003848143000680021102303EA1020094051
:10399000002358405940084301D0312300E0302330
:1039A0003048143000680021202404EA1020094027
:1039B000002460406140084301D0312400E03024FD
:1039C0002848143000680022402505EA102102EA48
:1039D000020051405040014301D0312600E0302622
:1039E0002048143000680022802505EA102102EAF0
:1039F000020051405040014301D0312000E030200E
:103A0000CDE90F6411930E90164814300068002120
:103A1000012303EA1040094000235840594008435D
:103A200001D0312200E030220E481430006800211D
:103A3000022404EA10400940002460406140084329
:103A40001ED031231DE000002A010000010000000B
:103A500005000000A086010048030010000001409E
:103A600000C0024003C009200000B040000080BF39
:103A7000A7E8482EFF21F93FFF2109400000344309
:103A80003023FB4800680021042505EA1040094066
:103A9000002568406940084301D0312500E0302509
:103AA000F34800680021082404EA10400940002679
:103AB00070407140084301D0312000E03020CDE952
:103AC0000B530D920A90EA4800680021102303EA84
:103AD00010400940002358405940084301D0312389
:103AE00000E03023E24800680021202404EA10406E
:103AF0000940002460406140084301D0312400E0C7
:103B00003024DB4800680021402505EA104201EA24
:103B100001004A404840024301D0312600E03026EF
:103B2000D34800680021802505EA1040094000259F
:103B300068406940084301D0312000E03020CDE9E1
:103B4000076409930690CA4800680021012303EA2C
:103B500010600940002358405940084301D03123E8
:103B600000E03023C24800680021022404EA10600B
:103B70000940002460406140084301D0312400E046
:103B80003024BB4800680021042505EA106201EAE0
:103B900001000D4651406840014301D0312700E04B
:103BA0003027B34800680021082202EA106201EAC7
:103BB0000100002672407040024301D0312000E035
:103BC0003020CDE9037405930290A94800680021D4
:103BD000102303EA1060094000235840594008436D
:103BE00001D0312400E03024A148006800212023C6
:103BF00003EA10600940002358405940084301D0AF
:103C0000312000E03020CDE900049948006800210F
:103C1000402303EA106009400023584059400843FC
:103C200001D0312000E030201F9091480068002131
:103C3000802303EA1060094000235840594008439C
:103C400001D0312000E030201E900246894922A890
:103C50001F9BFCF783FC9DF8A500312801D12A9811
:103C600034900021219120912A9801F0E5FF04462B
:103C7000349801F0E1FF211A0A461F917EA121A884
:103C8000FCF76CFCC1B220919DF8A70031280ED141
:103C9000329806280BDD01212E919DF8A61030AA3E
:103CA0002F9811542F98401CC1B22F9109E09DF814
:103CB000A700302805D100212E913298401CC1B2B6
:103CC00032912F9807287AD1002132912F912D918E
:103CD0009DF8C5101F919DF8C4101E919DF8C3104A
:103CE0001D919DF8C2101C919DF8C1101B919DF86B
:103CF000C000312840D19DF8C6003128FAD10120FA
:103D00001A900CE030A91A98085C312803D12D983C
:103D1000401CC1B22D911A98401CC1B21A911A9838
:103D20000628EFDB2D981A9000EBD07042101A98FD
:103D3000A0EB42000028DDD11C9830281DD11D9831
:103D400030281AD11E98302817D11F98312808D151
:103D50002C9820F00F012C912C9840F001012C910F
:103D600005E02C9820F00F012C912C982C907720B6
:103D7000424908602C980860C7E01C9830281FD181
:103D80001D9830281CD11E98312819D11F98312830
:103D900008D12C9820F00F012C912C9840F00201B2
:103DA0002C9105E02C9820F00F012C912C982C9050
:103DB00077213248016031492C980860A5E0A5E0E0
:103DC0001C9830281DD11D9831281AD11E983028F2
:103DD00017D11F98312808D12C9820F00F012C9171
:103DE0002C9840F004012C9105E02C9820F00F0154
:103DF0002C912C982C907720204908602C980860F2
:103E000083E01C9830281DD11D9831281AD11E98A6
:103E1000312817D11F98312808D12C9820F00F0194
:103E20002C912C9840F008012C9105E02C9820F062
:103E3000F0012C912C992C917720104908602C9836
:103E4000086062E01C98312826D11D98302823D1C3
:103E50001E98302820D11F98312811D12C9820F09D
:103E6000F0012C912C9840F010012C910EE00000F4
:103E700017C00920E466000025640000000001402E
:103E80002C9820F0F0012C912C982C907720F84958
:103E900008602C98086038E01C9831281DD11D98C6
:103EA00030281AD11E98312817D11F98312808D1EF
:103EB0002C9820F0F0012C912C9840F020012C91AE
:103EC00005E02C9820F0F0012C912C982C90772074
:103ED000E74908602C98086017E01C98312814D135
:103EE0001D98312811D11E9830280ED11F983128E5
:103EF00006D17A20DE4908606420086005E059E2B6
:103F00007A20DB4908600F20086000BF202122A82A
:103F1000FCF7A8FDD648406900210123184009405C
:103F2000002358405940084301D0312300E030239A
:103F3000CF4840690021022420400940002460400D
:103F40006140084301D0312400E03024C848406972
:103F500000210425284009400025684069400843A5
:103F600001D0312600E03026C148406900210825F3
:103F700000EA050201EA01000D4651406840014394
:103F800001D0312000E03020CDE91B641D931A9050
:103F9000B7484069002110231840094000235840C9
:103FA0005940084301D0312300E03023B048406934
:103FB0000021202420400940002460406140084343
:103FC00001D0312400E03024A94840690021402577
:103FD00000EA050201EA01004A404840024301D0DC
:103FE000312700E03027A24840690022802500EAFE
:103FF000050102EA0200002671407040014301D031
:10400000312000E03020CDE91774199316909848BC
:1040100040690021012303EA102009400023584091
:104020005940084301D0312200E0302290484069D5
:104030000021022303EA102009400024604061406F
:10404000084301D0312400E0302489484069002130
:10405000042505EA1020094000256840694008430E
:1040600001D0312600E03026814840690021082532
:1040700005EA102301EA010000277B407840034352
:1040800001D0312000E03020CDE913641592129068
:10409000774840690021102303EA102009400023DB
:1040A00058405940084301D0312300E03023704884
:1040B00040690021202404EA1020094000246040C7
:1040C0006140084301D0312400E030246848406951
:1040D0000021402505EA102201EA01000026724075
:1040E0007040024301D0312700E03027604840692A
:1040F0000021802202EA102201EA0100002672401B
:104100007040024301D0312000E03020CDE90F742F
:1041100011930E90564840690021012202EA104096
:104120000940002358405940084301D0312300E0A2
:1041300030234F4840690021022404EA104009401E
:10414000002460406140084301D0312400E0302465
:10415000474840690022042505EA104102EA0200AE
:1041600051405040014301D0312600E03026404804
:1041700040690021082505EA104201EA01000027F4
:104180007A407840024301D0312000E03020CDE970
:104190000B640D930A90364840690021102303EA0E
:1041A00010400940002358405940084301D03123B2
:1041B00000E030232E4840690021202404EA10400A
:1041C0000940002460406140084301D0312400E0F0
:1041D0003024274840690021402505EA1040094065
:1041E000002568406940084301D0312600E03026B0
:1041F0001F4840690022802505EA104102EA0200BA
:1042000051405040014301D0312000E03020CDE941
:10421000076409930690164840690021012303EAC8
:1042200010600940002358405940084301D0312311
:1042300000E030230E4840690021022404EA1060A7
:104240000940002460406140084301D0312400E06F
:104250003024074840690021042505EA1060094020
:10426000002568406940084304D0312703E000007E
:10427000000001403027504840690021082505EA28
:10428000106001EA01020E460D460146714082EAC5
:104290000500014301D0312000E03020CDE9037456
:1042A00005930290444840690021102303EA1060FE
:1042B0000940002358405940084301D0312400E010
:1042C00030243D4840690021202303EA1060094062
:1042D000002358405940084301D0312000E03020ED
:1042E000CDE90004344840690021402303EA10600E
:1042F0000940002358405940084301D0312000E0D4
:1043000030201F902C4840690021802303EA106070
:104310000940002358405940084301D0312000E0B3
:1043200030201E900246254922A81F9BFCF716F953
:104330009DF8A20031282CD17B201F490860002164
:104340001D4801607C201C490860002008607D2019
:104350000860002008607E20086000211648016087
:1043600000201F9011E07920134908602098C0F1C7
:1043700004011F9808441049086021A91F98085C8F
:104380000D4908601F98401C1F90DDE91F018842FD
:10439000E9DB3298002803DD094800F06FFE08E0F1
:1043A0002E9818B1074800F069FE02E0044800F0BA
:1043B00065FE00BFFFF7A8B900000140E4660000F9
:1043C0006F12033B6F12833B70B514460D460646D1
:1043D000FEF7C8FD23462A46314603A000F07CF8CC
:1043E000BDE8704000F01AB86D62656420617373B7
:1043F0006572746174696F6E206661696C65643A98
:104400002025732C2066696C653A2025732C206C5E
:10441000696E65202564200A0000000086B0FEF762
:10442000A1FD25496846FEF7D5FE00240098B0F1AD
:10443000FF3F04D12422214921A0FFF7C5FF0399A2
:1044400001980860962000F02FFE0098B0F1FF3F21
:1044500004D1242219491AA0FFF7B6FF0499019844
:104460000860962000F020FE641C042CDEDB002493
:104470000098B0F1FF3F04D12422104910A0FFF7AB
:10448000A3FF0399019808604FF4C87000F00CFE78
:104490000098B0F1FF3F04D12422084908A0FFF79B
:1044A00093FF0499019808604FF4C87000F0FCFD78
:1044B000641C042CDCDBB8E732C00920D86500009E
:1044C0006F626A2D3E70696E20213D202850696E12
:1044D0004E616D65294E43000FB470B5A0B025AC98
:1044E000249DFEF73FFD23462A4680216846FCF7BF
:1044F0001BF8051E10DD0B48006820B90A4A0B485E
:10450000511E00F067FA00246E460848315D00F045
:104510009DFB641CAC42F8DBFEF788FD20B070BC4C
:104520005DF814FBD800001003C00920E000001063
:1045300070B5A0B00C460546FEF714FD23462A468A
:1045400080216846FBF7F0FF051E10DD0A48006871
:1045500020B90A4A0A48511E00F03CFA00246E466F
:104560000748315D00F072FB641CAC42F8DBFEF7DB
:104570005DFD20B070BD0000D800001003C0092010
:10458000E000001000F036B97047704770B50D4676
:104590000446B0F1FF3F04D115220D490DA0FFF7ED
:1045A00013FFA4F10050A0F51C2001090007C20E62
:1045B000880000F1804000F530300168032393400B
:1045C00099430160016805FA02F21143016070BD70
:1045D0004066000070696E20213D202850696E4EB3
:1045E000616D65294E43000070B50C460546B0F17B
:1045F000FF3F04D120221A491AA0FFF7E5FEA5F1DA
:104600000050A0F51C204209920002F1804202F500
:10461000303200F01F03D2F868C0C4F3800101FA01
:1046200003F32CEA030CC2F868C0D2F868C04CEA65
:1046300003039366002918BF70BD02090007C10E6D
:10464000900000F1804000F53030026C03238B4075
:104650009A430264026C04FA01F11143016470BDD3
:104660004066000070696E20213D202850696E4E22
:10467000616D65294E4300000A68B2F1FF3F09D021
:104680000A68824201D14868704751F80C2FB2F194
:10469000FF3FF5D14FF0FF3070470000884208BF60
:1046A0007047B0F1FF3F04BF0846704710B5B1F145
:1046B000FF3F08BF10BD03A0FEF702FD4FF0FF3023
:1046C00010BD000070696E6D6170206D69732D6D95
:1046D000617463680000000010B5B0F1FF3F08BFCF
:1046E00010BD0A68B2F1FF3F0CD00A68824204D1C3
:1046F0004C68B4F1FF3F0AD106E051F80C2FB2F13B
:10470000FF3FF2D14FF0FF3402A0FEF7D9FC204664
:1047100010BD000070696E6D6170206E6F74206650
:104720006F756E6420666F7220706572697068655F
:1047300072616C0010B50446B0F1FF3F08BF10BDB8
:104740000868B0F1FF3F11D00868A04209D189681C
:104750002046FFF71BFF2046BDE810400221FFF76F
:1047600043BF51F80C0FB0F1FF3FEDD1BDE8104051
:1047700001A0FEF7A5BC0000636F756C64206E6F2E
:10478000742070696E6F75740000000070B5054686
:1047900000F0D6FB6C684FF0E040626882B1D4E96B
:1047A000023CD2E900125E1A7CEB02061CD2C91A46
:1047B00062EB0C02B1F1E04372F1000238BF08462F
:1047C000D4E902120C18286842F10006016920465B
:1047D0008847284600F0B4FB6868D0E90212081B3D
:1047E00072EB060038BF70BD28684069BDE87040B4
:1047F000004700000248006800F001007047000018
:10480000F0ED00E084B069461820ABBE04B07047FC
:104810002DE9F05F0D46064600686349884204DDD5
:104820009B22624962A0FFF7CFFD3068A0F1804172
:104830006648B1F5404109D0B1F5804F11D0B1F5CE
:104840000C2F1BD0B1F5102F23D02EE0D0F8A811DB
:1048500021F0C001C0F8A811D0F8A81141F0400122
:1048600009E0D0F8A81121F44071C0F8A811D0F8DF
:10487000A81141F48071C0F8A81116E0D0F8AC116D
:1048800021F44031C0F8AC11D0F8AC1141F48031C2
:1048900009E0D0F8AC1121F44021C0F8AC11D0F8F7
:1048A000AC1141F48021C0F8AC1149482A014FF005
:1048B000000900684FF00108B0FBF2F1B0FBF2F321
:1048C00002FB13028FB24946002A57D001222C4620
:1048D0004FF0000C924603E04FF0000C002A47D93D
:1048E00002FB00FB4FF0004313EA4B0F0AD05300CA
:1048F0000CEB020B43430BFB05FBB3FBFBF30AEB97
:10490000131309E093000CEB020B43430BFB05FB75
:10491000B3FBFBF30AEB5313C3F34F03002B08BFA6
:104920000123BCF1000F18BF022B38BF022300FB8C
:1049300002FB0CEB020E0EFB03FE4FEACE0EBBFB9E
:10494000FEFB0BF1010BD5EB5B0B48BFCBF1000B72
:10495000A34507DA5C461F469046E146AB4508BFD3
:10496000012105D00CF1010303F0FF0C9445B7D3EE
:10497000521CD2B2102A01D20029ADD03068017B7E
:1049800041F0800101733168380A0871306807709E
:10499000316849EA081081F828003068017B21F06D
:1049A00080010173BDE8F09F00C0094090660000DF
:1049B00028696E74296F626A2D3E75617274203C9D
:1049C0003D20554152545F330000000000C00F40AD
:1049D000E80000102DE9F047884604461746534981
:1049E0004046FFF779FE054651493846FFF774FE09
:1049F00001462846FFF752FE0546B0F1FF3F04D1BD
:104A00005C224C494CA0FFF7DFFCA5F180414E48E9
:104A10002560B1F5404104BFD0F8C41041F0080151
:104A200017D0B1F5804F04BFD0F8C41041F0100189
:104A30000FD0B1F50C2F04BFD0F8C41041F0807135
:104A400007D0B1F5102F04BFD0F8C41041F00071A9
:104A500001D1C0F8C41020680126067220684FF00A
:104A60000009C0F804904FF416512046FFF7D0FE1D
:104A7000002003230146024643EA800040EAC100C9
:104A8000216840EA0210087328494046FFF752FEA9
:104A900027493846FFF74EFEB8F1FF3F03D000210B
:104AA0004046FFF7A1FDB7F1FF3F03D00021384694
:104AB000FFF79AFDA5F18040B0F5404008BFC4F86B
:104AC00004900FD0B0F5804F08BF66600AD0B0F5F3
:104AD0000C2F08BF022004D0B0F5102F08BF032010
:104AE00000D1606061684FF0FF30C1EBC10217492F
:104AF000034601EBC20250606268C2EBC20201EBE6
:104B0000C2010246C8610021204600F0D3F8A5F199
:104B10008040B0F5404018BFBDE8F0870C48066003
:104B2000D4E90012C0E90212BDE8F0877C620000FF
:104B3000E86200009066000028696E742975617251
:104B40007420213D204E430000C00F406802001039
:104B5000D800001070B404680023A4F180459C467E
:104B6000B5F5404504BF0523DFF8C8C013D0B5F53F
:104B7000804F04BF0623DFF8C0C00CD0B5F50C2F62
:104B800004BF0723DFF8B4C005D0B5F5102F04BF6C
:104B90000823DFF8ACC0012505FA01F6B2B1606860
:104BA0003043606027480068002B00EB8300C0F8AA
:104BB00040C0BCBF70BC704705FA03F059098900BA
:104BC00001F1E021C1F8000170BC7047012912D049
:104BD0004268C2EBC20C1C4A02EBCC0292F836C00F
:104BE00092F835201CEB020F1CBF70BC70470029E7
:104BF00008BF012100D000216268B24362600068F2
:104C0000406805FA01F108421CBF70BC7047002BD8
:104C1000BCBF70BC704705FA03F05909890001F167
:104C2000E021C1F88001BFF34F8FBFF36F8F70BCDD
:104C300070470000894E00009D4E0000B14E0000FC
:104C4000C54E000008ED00E06802001070B4426834
:104C5000174CC2EBC20204EBC2020025D2F81CC002
:104C6000BCF1FF3F0AD0166B3668136A1E42F7D1BB
:104C700003681B7D13F0400FF2D00BE003681B7D2F
:104C800013F0200F02D082F8345003E092F8343051
:104C9000102BE5D2026811704068C0EBC00004EB35
:104CA000C00090F83410491C80F8341070BC704774
:104CB000680200102DE9F84F04460E46D4E90010B2
:104CC000DFF8ECB099469246594518BF002506D149
:104CD0009BF810105D4621F0C0018BF81010DFF832
:104CE000D480C0EBC00008EBC0074FF0FF31F96182
:104CF000796061680022C1EBC10108EBC101204667
:104D000081F835201146FFF725FF002E08BFBDE8CA
:104D1000F88F29495046FFF7AFFC009027494846D5
:104D2000FFF7AAFC022E18BF032E13D1B9F1FF3FE3
:104D300010D0584509D145B1287C40F08000287436
:104D40001E494846FFF7F6FC04E007F11C004946FF
:104D5000FEF72BFA012E1CBF032EBDE8F88FBAF127
:104D6000FF3F08BFBDE8F88F072021680872009850
:104D700058450AD14DB1287C40F040002874504677
:104D8000BDE8F84F0C49FFF7D5BC381D002251464D
:104D9000FEF744FA61680122C1EBC10108EBC101D1
:104DA000204681F83520BDE8F84F0021FFF7D2BE3C
:104DB00000000140680200105463000078630000A6
:104DC00070B5054601F090F8044620F00040C0F1AF
:104DD000FF40C00F08D025F00040C0F1FF40C00FD9
:104DE00004BF0120FBF70FFF204670BD70B50546DC
:104DF0000068C06880476868416801B3D0E9026410
:104E0000286840688047B0422CBF0021012111B1C1
:104E1000001C44F101046968C1E9020469684A6838
:104E2000D2E9003CC01A74EB0C0008D3D06848608B
:104E30006868016800291CBF90688847DBE728463E
:104E4000BDE87040FFF7A2BC10B504464068007C86
:104E500098B9206800688047616800200860616830
:104E6000486062680121C2E902006068017420465E
:104E700000F066F82046FFF789FC204600F060F855
:104E80006068806810BD0000034A90680021C0F38C
:104E9000420000F021B8000000C00040034A9068C2
:104EA0000121C0F3420000F017B8000000000140EB
:104EB000034A90680221C0F3420000F00DB80000E0
:104EC00000800940034A90680321C0F3420000F0CB
:104ED00003B8000000C0094030B4DFF85CC0C1EB8B
:104EE000C1040CEBC403012808BF012112D0022821
:104EF0001CBF30BC704700215868B0F1FF3F09D09B
:104F000018699D68056093F8360018B9506820F05C
:104F1000010050605CF83400002804BF30BC7047CA
:104F2000002901BF93F83620002A30BC7047034A9D
:104F3000526830BC1047000068020010D800001012
:104F400070B505464068D0E902642868406880472B
:104F5000B04234BF0121002111B1001C44F1010411
:104F60006968C1E9020470BD014901200860704709
:104F7000004009400248416921F001014161704748
:104F8000004009404FF0E0211020C1F800027047B6
:104F900012480168002918BF7047012101601048BC
:104FA00050F8C42F42F4000202600E48002202674B
:104FB0000D4A12689208022343600C4BB2FBF3F2D5
:104FC000521EC26041600B480949006801654FF0FC
:104FD000E0211020C1F8000170470000EC00001033
:104FE00000C00F4000400940E800001040420F00A0
:104FF000F94F000008ED00E00148FFF7F7BE0000A0
:10500000B4630000114912480A68EAB901220A6033
:10501000104951F8C43F43F400030B6000210167BD
:105020000D4909688908022343600C4BB1FBF3F179
:10503000491EC16042600B49094A09680A654FF080
:10504000E0221021C2F8001180687047EC000010C7
:105050000040094000C00F40E800001040420F002F
:10506000F94F000008ED00E003498861486940F00D
:1050700001004861704700000040094070B50949CF
:1050800000F02AFE00F0D8FD0446FEF743F806467D
:10509000FFF7DAFE05463046FFF7D6FE401BA0427A
:1050A000F9D370BD0024744970B54FF47A7100FBD8
:1050B00001F5FEF72FF80646FFF7C6FE0446304618
:1050C000FFF7C2FE001BA842F9D370BD10B500293E
:1050D0000AD00878002807D005487844FBF7EAFC96
:1050E000002801D0002010BD0248784410BD000007
:1050F0006E1600006616000010B500290AD0087868
:10510000002807D005487844FBF7D4FC002801D0DC
:10511000002010BD0248784410BD00005E1600005B
:105120005616000010B504460068002806BF201D72
:1051300020602068211D884204D05D220249034876
:10514000FFF742F9206810BDE8640000D464000055
:1051500021F00042A2F16052B2F5801F01F000433D
:1051600028BFD2F17F6C0BD95FEA001C43EAC20270
:1051700042EB507018BF704728BF20F00100704705
:10518000B2F5801FBCBF184670474FEA410C1CF5B2
:10519000001F02D2084600F066BE70B500F06AFA41
:1051A00000000089FFF7F6BF4FF00040A0F5800037
:1051B0007047000010B591EA030F48BF83F0004329
:1051C00000F1F682841A71EB030C05D2121943EB3D
:1051D0000C03001B61EB0C01DFF824E14FEA1154D2
:1051E000A4EB135C1EEA430F18BF9EEA445F73D022
:1051F00023EA0E03DCF1200E21EA045143F480136C
:1052000032D322FA0CFE10EB0E0023FA0CFE41EB17
:105210000E01CCF1200E03FA0EFE10EB0E0051F140
:105220000001B1F5801FCCF1200E32D201EB045108
:1052300012FA0EF2BDE8104058BF7047401C38BF4C
:105240005FEA420218BF7047002814BF20F0010037
:1052500041F100014FEA410313F5001F38BF7047C9
:10526000A1F1C04100F054BA012A43EB0302ACF1B2
:10527000200CDCF11F0E32BF4FF0000E23FA0CF3AE
:1052800010EB030041EB0451B4EB115FD0D0A1EB64
:10529000045101F5801149085FEA300001EB045127
:1052A0000ED350F1000038BF12FA0EFE08D1BDE84F
:1052B0001040C9E7401C38BF5FEA4202CAD1C3E7C9
:1052C000BDE810404FEA410313F5001F38BF704797
:1052D000A1F1C04100F01CBA9EEA445F08D011EA77
:1052E0005E0FBDE8104004BF01F000410020704790
:1052F000BDE8104070B500F0BDF900BF64FBBE3ED4
:105300000000E0FF491058BFC1F140415B1058BF99
:10531000C3F140438B42EFF3008070472DE9C04159
:1053200030B4DFF8A0C23CEA111418BF3CEA1314F1
:1053300000F0EC8081EA03051CEA111444EAD574FC
:1053400018BF1CEA131500F0C780A4EB05044FF04A
:10535000004545EAC12145EAC32341EA505143EAE9
:10536000525304F17F74994204F500344FEAC0208F
:105370004FEAC22208BF904200F09C804FEA1365BA
:105380000FF24016765D4FEA134506FB05F7C7F1AD
:10539000807706FB07F74FEAD737A7FB036876420B
:1053A000C8F58038A7FB06CE38BFA8F1010807FB77
:1053B00008E64FF0000EA6FB028CE6FB03CEDCF104
:1053C000000CCEF1004E38BFAEF1010EA6FB0C581A
:1053D0004FF000074FF00005E6FB0E87A1FB08C663
:1053E000A0FB07CE16EB0E0645F10005E1FB0765B5
:1053F00015F1E04E7EBFA4F580345FEA46066D41AC
:1054000016F1800745F100054FEA17274FEA0666B7
:1054100047EA0567A6F1DE46B6F1805F4FEA15253B
:105420001FD9384624F0010C05EBC471BCF1FE6FA6
:1054300001EB0C1102D8F0BCBDE8008124425CBF36
:1054400001F5801E9EEAC47F02D4F0BCBDE8008155
:10545000244238D4F0BCA1F1C041BDE8004100F0C5
:1054600057B94FEAD22242EA43524FEAD323A7FB6D
:1054700002864FEAD02040EA415007FB03661EEA4D
:105480000E0F4FEAD12105FB026658BFA6EB00566E
:10549000B6EB00564FEA520E4EEAC37E18EB0E0EE4
:1054A00056EB530EBDD518EB02085E417F1C55F13B
:1054B0000005B6E74FF480154FF000074FF00006E7
:1054C0004FF00008ADE7F0BC4FF0000001F1C04123
:1054D00001F00041BDE8008111EA0C1F0CEA131530
:1054E00000D00CE013EA0C1F00F025804FF0000004
:1054F000F0BC81EA030101F00041BDE80081F0BC8D
:10550000BDE8004181EA030100F002B9F0BCBDE84A
:10551000004170B500F0AEF8097EFC3E00F007B81F
:1055200081EA03014FF0000001F00041704781EA79
:10553000030100F0EDB8F0BCBDE800414FF0000001
:1055400021497047FFFDFBF9F7F5F4F2F0EEEDEBC2
:10555000E9E8E6E4E3E1E0DEDDDBDAD8D7D5D4D371
:10556000D1D0CFCDCCCBCAC8C7C6C5C4C2C1C0BFBD
:10557000BEBDBCBBBAB9B8B7B6B5B4B3B2B1B0AFC3
:10558000AEADACABAAA9A8A8A7A6A5A4A3A3A2A1A7
:10559000A09F9F9E9D9C9C9B9A9999989797969562
:1055A00095949393929191908F8F8E8E8D8C8C8BFE
:1055B0008B8A898988888787868585848483838286
:1055C000828181800000FF070000F87F10F0004218
:1055D00048BF4042B0FA80F310FA03F10AD0C3F199
:1055E0001D0303F580634FEA415002EB035202EBC7
:1055F000D12170474FF000007047000051EA030CC2
:1056000017D41CF5801F58BFBCF5801F00F1068021
:10561000994218BF704708BF9042704707D711F5ED
:10562000801F58BF13F5801F19D4994270478942D3
:1056300070471CF5801F08D5BCF5801FF7D58B423D
:1056400018BF704708BF824270474FF4001C1CEB24
:10565000410F38BF1CEB430F01D28B42704770B52E
:1056600000F008F8922449004FF000514FF08053A9
:10567000FFF748BE0EF1020E2EF0030E5EF8046B2B
:10568000364205D4012A43EB030515F5001F12D855
:10569000012841EB010C1CF5001F0CD80ED14FEA7C
:1056A000D17C15F5001F0CEB4C0C0CF1020C08BF63
:1056B0004CEBD37C04E04FF0080C01E04FEAD37CC4
:1056C0000CEB4C0526FA05F606F00706B6F1040CBD
:1056D00006D20EEB860CBDE870404CF0010C604722
:1056E000DFE80CF0090B02024FF000414FF0000020
:1056F000A1F5002170BD19461046012851EB0104A7
:1057000018BFD4F5001484BF002001F0004170BD23
:105710000808A0F500114FEA3101704753EA010C67
:1057200017D41CF5801F58BFBCF5801F00F1068000
:105730008B4218BF704708BF8242704707D713F5E6
:10574000801F58BF11F5801F19D48B4270479B42B0
:1057500070471CF5801F08D5BCF5801FF7D599420E
:1057600018BF704708BF904270474FF4001C1CEBF5
:10577000430F38BF1CEB410F01D2994270470FB461
:105780000CBC03BCFFF76BBF91EA030F10B581F0AF
:1057900000413FF517AD83F0004300F009B8000069
:1057A00010B591EA030F48BF83F000433FF50AADFF
:1057B000841A71EB030C07D212198CF0004C43EBE6
:1057C0000C03001B61EB0C01DFF8A4E14FEA11545C
:1057D000A4EB135C1EEA430F18BF9EEA445F00F07F
:1057E000B08023EA6E03524221EA0451C3EB6E03F8
:1057F00038BF5B1EDCF1200E25D322FA0CFE10EB25
:105800000E0043FA0CFE41EB0E01CCF1200E03FA20
:105810000EFE10EB0E0051F10001CCF1200E29D448
:1058200012FA0EF201EB0451BDE8104058BF704768
:10583000401C1CBFB2F1004F704700280CBF491C30
:1058400020F00100704712EB020E43EB030218BF79
:105850004FF0010E4EEA4202ACF1200CDCF11E0EBC
:1058600054D943FA0CFE10EB0E0051F1FF31CCF18C
:105870001E0ED5D50EF1010E12FA0EFE404141EB7F
:10588000010101EB445C5FEA5C5C10D910EBDE7057
:1058900001EB045138BFBEF1004FBDE8104018BF06
:1058A000704700280CBF491C20F00100704730D21F
:1058B0004FEAD42C11F5001124F400641BD0B1FA86
:1058C00081F20B3AA41AA41ED2F12003914030FABF
:1058D00003F31943904001EBCC71002C01EB045110
:1058E000BDE81040A8BF704701F1C0414FF0000073
:1058F00001F000417047B0FA80F310FA03F100D1D3
:1059000010BDE41A173C4805C90AE4E701EB04514D
:1059100010BD491001EB0451BDE810404FEA3000C2
:1059200002E04FF0000170474A0008BF0042F8D083
:10593000B2F5001F28BF704701F000414FF0000092
:1059400070479EEA445F07D011EA5E0FBDE8104041
:1059500004BF002100207047BDE8104070B5FFF77C
:1059600089FE00BF40DFF63E83F0004110467047DD
:105970000000E0FF43004FEAD30C4FEA3C0C4340E9
:105980001FBF40070CF1605113F0FE4F70471CF031
:10599000006F03D100200CF0004170470CF0004371
:1059A00043EA507010B540EACC0000F016FA00BF90
:1059B000000000924FEA0001FFF7AABE4FF000413D
:1059C0004FF00000A1F500217047000090EA010FA0
:1059D00048BF81F0004100F11683421A3CBF801A93
:1059E00089184FEAD0524FF07F4C1CEA410FA2EBCE
:1059F000D15318BF9CEA026F00F03B804FF0004C7F
:105A00004CEA00204CEA012121FA03FC10EB0C0CBB
:105A10001ED202F1FF325FEA1C2040EBC25038BFB9
:105A200070471CF07F0F4FEA400C18BFBCF17F4F4E
:105A300038BF7047C3F12003994008BF20F0010030
:105A4000BCF17F4F38BF7047A0F1C04000F00BBAE7
:105A50004FEA3C00000A40EBC25028BF1CF0FF0F89
:105A60004FEA400CE6D018BFBCF17F4F38BF7047FB
:105A7000EAE79CEA026F05D010EA5C0F08BF00F06D
:105A80000040704710B500F0A8F900BF64FBBE3EAF
:105A9000014800F02ABB00BF0000C07F401058BF83
:105AA000C0F14040491058BFC1F140418142EFF37D
:105AB000008070474FF47F0C1CEAD0121EBF1CEA16
:105AC000D11392EA0C0F93EA0C0F00F0858090EA54
:105AD000010F48BF42F4807240F4000C41F4000012
:105AE0002CF07F4120F07F4000B58142A2EB030201
:105AF0000FF2081CACEB504EC0F100009EF800E025
:105B00004FEA4E0E00FB0EFC38BF49004FEA2C1C3A
:105B100002F5FA020CFB0EF34FEACE1E4FEA112CEF
:105B20004FEAC1210EEB635E42EB22420EFB0CFCFE
:105B30004FEA1C5300FB03114FEA112C4FEA0131CD
:105B40000EFB0CFC4FEADC4C00FB0C11C14228BFE1
:105B500009184CEB03335DF804EB10EB410143EB08
:105B6000C250B2F57C0F38BF704729D512F0F00F44
:105B70001CBF00F1C04000F00040704700818283EC
:105B80008485868788898B8C8D8E8F91929395964C
:105B900097999A9C9D9FA0A2A3A5A7A8AAACAEB0D6
:105BA000B2B3B5B7B9BCBEC0C2C5C7C9CCCED1D4DB
:105BB000D7D9DCDFE2E6E9ECF0F3F7FAFE0000000B
:105BC0004FEA400C0CF1807CBCF17E4F28BF70473F
:105BD000B0F1C04000F047B990EA010F0CEAD113D0
:105BE00048BF42F48072624538BF634507D213F460
:105BF0007F0F16D080EA010000F00040704710B51A
:105C000000F0EBF8097EFC3E00F005B880EA0100E8
:105C100000F00040704780EA010000F0004000F012
:105C200022B912F47F0F04BF0248704780EA0100D6
:105C300000F019B90000C07F41000B0ED3F19E02A5
:105C400008D950F400034FEA032323FA02F048BFB7
:105C50004042704710B500F0C0F800BF4992248060
:105C6000002070476FF0004282EA20007047000079
:105C700050EA010C00F113801CF5000F58BFBCF571
:105C8000000F01D48842704707D710F5000F58BFA6
:105C900011F5000F15D488427047894270471CF5F2
:105CA000000F04D5BCF5000FF7D5814270474FF0C7
:105CB000807C1CEB400F38BF1CEB410F01D28142AE
